:020000040800F2
:10000000000001206D3400080D0700080F070008EC
:10001000110700081307000815070008000000007A
:1000200000000000000000000000000017070008AA
:1000300019070008000000001B0700081D07000842
:10004000BD340008BD340008BD340008BD340008CC
:10005000BD340008BD340008BD340008BD340008BC
:10006000BD340008BD340008BD340008BD340008AC
:10007000BD340008BD340008BD340008BD3400089C
:10008000BD340008BD340008BD340008BD3400088C
:10009000BD340008BD340008BD340008BD3400087C
:1000A000BD340008BD340008BD340008BD3400086C
:1000B000BD3400080000000000000000BD3400084E
:1000C000BD3400080000000000000000BD3400083E
:1000D00000000000BD340008BD340008000000002E
:1000E000BD340008BD34000800000000000000001E
:1000F0000000000000000000000000000000000000
:10010000000000000000000000000000BD340008F6
:100110000000000000000000BD340008BD340008ED
:10012000BD340008BD340008BD340008BD340008EB
:10013000BD340008000000000000000000000000C6
:10014000BD340008BD340008BD340008BD340008CB
:10015000BD340008BD340008BD340008BD340008BB
:10016000BD340008BD340008BD34000800000000A4
:10017000BD340008BD34000800000000000000008D
:10018000BD340008BD340008BD3400080000000084
:1001900001F0FF01102A2BDB10F0070F08D010F838
:1001A000013B013A8B422DD010F0070F42B3F6D13C
:1001B000F0B441EA012141EA014122F007047FF055
:1001C00000070023F0E80256083C85EA010586EAAC
:1001D000010685FA47F5A3FA87F586FA47F6A5FAE8
:1001E00087F68EB9EED1F0BC01F0FF0102F00702F4
:1001F00032B110F8013B013A83EA010313B1F8D19F
:100200000020704701387047002D06BF354603387F
:10021000073815F0010F07D1013015F4807F02BFB8
:10022000013015F4C03F0130F0BC0138704700BF09
:1002300053B94AB9002908BF00281CBF4FF0FF314D
:100240004FF0FF3000F00CB8ADF1080C6DE904CEB2
:1002500004F0E8FFDDF804E0DDE9022304B07047B4
:10026000704700BF10B5054C237833B9044B13B168
:100270000448AFF300800123237010BD70000020FC
:1002800000000000D054000808B5034B1BB103491F
:100290000348AFF3008008BD000000007400002098
:1002A000D054000808B5054B1860054B18680023AA
:1002B00002221946806803F069F908BD8C0000200D
:1002C0000C000020022801D80120704708B503F077
:1002D000FBF809230360002008BD000010B50138B9
:1002E00001280AD814464FF0FF3392B2074800683D
:1002F00002F00AFF40B9204610BD03F0E5F80923DB
:1003000003604FF0FF30F7E70520F5E78C00002091
:10031000022801D80020704708B503F0D5F809235A
:1003200003604FF0FF3008BD08B503F0CDF8092396
:1003300003604FF0FF3008BD08B548B94FF0FF33F8
:1003400001220848006802F04AFF40B9012008BDB8
:1003500003F0BAF8092303604FF0FF30F7E70520F8
:10036000F5E700BF8C00002008B5022804D84FF440
:1003700000534B60002008BD03F0A6F8092303607A
:10038000F8E708B500F07EFB08BD08B5012100F0D4
:10039000BBFD08BD0368D962C160704770B5ACB0E1
:1003A000442200211BA803F0B9F8002416941794E6
:1003B000189419941A945422214601A803F0AEF817
:1003C00002F07CFA194AD2F8903023F01803C2F8F0
:1003D000903014231B9301251D95219522946023B1
:1003E00023930226259626952795102328930723E5
:1003F00029932A962B961BA801F06AF80F231693CF
:1004000003231793189419941A94294616A801F0F7
:1004100051FC01960A9401A801F090FE4FF400707F
:1004200002F05CFA02F0E8F82CB070BD0010024057
:1004300010B59AB000F088FFFFF7B0FF00F02EF87B
:1004400000F0A6F800F006F90E48FFF72BFF0E4C5F
:100450002046FFF796FF2046FFF797FF0B4803F073
:1004600065F801A90A4803F079F801A9094803F0E1
:100470005DF801A803F023F881B20348FFF78AFF73
:10048000ECE700BFD000002090000020F4540008EA
:1004900004550008085500087047704730B589B00A
:1004A000002403940494059406940794164BDA6C84
:1004B00042F00402DA64DA6C02F004020092009A5C
:1004C000DA6C42F00102DA64DA6C02F001020192A5
:1004D000019ADA6C42F00202DA64DB6C03F0020388
:1004E0000293029B094D22460821284602F0CCF9CE
:1004F00008230393012304930594069403A9284633
:1005000002F082F809B030BD00100240000400483B
:100510000268094B9A4200D0704782B003F56443E9
:100520001A6E42F400621A661B6E03F400630193B4
:10053000019B02B0704700BF002C014000B587B09E
:1005400000230193029303930493059302680F4BD6
:100550009A4202D007B05DF804FB03F56443DA6CFD
:1005600042F00102DA64DB6C03F001030093009BAC
:100570004FF480730193022302930123059301A991
:100580004FF0904002F040F8E4E700BF002C01403B
:1005900010B596B000241394149415940C940D94F3
:1005A0000E940F941094119412942C22214601A8B9
:1005B00002F0B4FF2548264B036044608460C460A9
:1005C00004614461846100F05DFA002831D10023A8
:1005D00013931493159313A91C4800F019FD0028D8
:1005E0002AD160230C9300220D920E920F9210924A
:1005F000119212920CA9154800F00AFBF8B90023D9
:10060000019302930393049305934FF400520692CF
:10061000079308934FF0007209920A930B9301A974
:100620000A4800F093FD68B90848FFF787FF16B045
:1006300010BDFFF731FFCAE7FFF72EFFD1E7FFF745
:100640002BFFDCE7FFF728FFEEE700BF900000205C
:10065000002C014008B50B480B4B03604FF4E1330D
:10066000436000238360C36003610C2242618361A5
:10067000C3610362436202F077FE00B908BDFFF771
:100680000BFFFBE7D00000200044004030B589B0EC
:1006900000230393049305930693079302681A4B70
:1006A0009A4201D009B030BD03F5E6339A6D42F4A9
:1006B00000329A659A6D02F400320192019ADA6C66
:1006C00042F00102DA64DB6C03F001030293029B47
:1006D0000423039302250495032406940723079318
:1006E00003A94FF0904001F08FFF4FF400430393B4
:1006F0000495002305930694079403A94FF09040B6
:1007000001F082FFCEE700BF004400407047FEE7E3
:10071000FEE7FEE7FEE770477047704708B500F058
:1007200023FE08BD82B00A4B1A6E42F001021A661F
:100730001A6E02F001020092009A9A6D42F0805205
:100740009A659B6D03F080530193019B02B0704743
:100750000010024030B4036A23F480330362036A5A
:100760004468426D22F4803222F070020D682A4300
:1007700023F400338D6843EA05430B4DA84207D0AC
:1007800005F5A055A84203D005F58065A84204D11F
:1007900024F480344D6944EA0524446042654A6883
:1007A0008265036230BC7047002C014030B4036A9C
:1007B00023F480130362026A4468436D23F080735C
:1007C00023F4E0430D6843EA052322F400128D6808
:1007D00042EA05520B4DA84207D005F5A055A842A4
:1007E00003D005F58065A84204D124F480244D6926
:1007F00044EA8524446043654B68C365026230BCAB
:10080000704700BF002C01402DE9F04104460D4621
:10081000036A23F001030362066A4768836923F4CD
:10082000803323F073030A6842EA030826F00203C8
:100830008E681E43244B984207D003F5A05398427C
:1008400003D003F58063984209D1EB680BB1082B04
:1008500028D126F00806EB681E4326F004061A4B42
:100860009C4207D003F5A0539C4203D003F580635C
:100870009C420FD1AB69B3F5007F00D0C3B96B695F
:10088000B3F5807F00D0CBB927F440776B693B4349
:10089000AF691F436760C4F818806B6863632662A2
:1008A000BDE8F08141F28E710848FFF7F6FDD0E710
:1008B00041F29B710548FFF7F0FDE0E741F29C71C2
:1008C0000248FFF7EAFDDFE7002C01401855000859
:1008D0002DE9F04104460D46036A23F48073036258
:1008E000066A4768C36923F4803323F073030A68F8
:1008F00042EA030826F400768B6846EA0326234B77
:10090000984224D0214B9C4207D003F5A0539C422F
:1009100003D003F580639C4211D1AB69B3F5007F2E
:1009200000D033BB6B69B3F5807F00D03BBB27F4AD
:1009300040576B6947EA0317AB6947EA03176760DB
:10094000C4F81C806B68E3632662BDE8F081CB6865
:100950000BB1082B07D126F40066EB6846EA0326A4
:1009600026F48066CEE741F624010948FFF795FD9D
:10097000F1E741F631010648FFF78FFDD2E741F676
:1009800032010348FFF789FDD1E700BF002C014089
:10099000185500082DE9F04104460F46036A23F478
:1009A00080530362056AD0F80480C36923F0807322
:1009B00023F4E6430E6843EA062625F400558B68C7
:1009C00045EA0335114B984207D003F5A0539842EE
:1009D00003D003F58063984209D17B69B3F5807F2A
:1009E00000D063B928F480487B6948EA8318C4F8CA
:1009F0000480E6617B6823642562BDE8F08141F6EE
:100A000070010348FFF749FDECE700BF002C0140EF
:100A10001855000803681A4A904202D0B0F1804F7E
:100A200003D123F070034A681343154A90420AD059
:100A3000B0F1804F07D002F5A052904203D002F5EA
:100A40008062904203D123F44073CA68134323F0B9
:100A500080034A69134303608B68C3620B68836237
:100A6000074B984207D003F5A053984203D003F5F3
:100A70008063984201D10B6903630123436170478E
:100A8000002C014000285BD010B5044603682D4AB5
:100A9000934217D0B3F1804F14D0A2F58E32934217
:100AA00010D002F5806293420CD002F59632934248
:100AB00008D002F58062934204D040F2A24122485D
:100AC000FFF7EBFCA3683BB1102B05D0202B03D024
:100AD000402B01D0602B1BD123692BB1B3F5807F54
:100AE00002D0B3F5007F19D1A3690BB1802B1BD1C4
:100AF00094F83D30F3B1022384F83D30214651F89B
:100B0000040BFFF787FF012384F83D30002010BD60
:100B100040F2A3410C48FFF7C0FCDDE740F2A441DE
:100B20000948FFF7BAFCDFE740F2A5410648FFF7A6
:100B3000B4FCDDE784F83C302046FFF7E9FCDAE757
:100B400001207047002C0140185500082DE9F041A4
:100B500004460D46036A23F010030362066AD0F8C8
:100B60000480836923F0807323F4E6430F6843EA2B
:100B7000072726F020068B6846EA0316224B984288
:100B800024D0214B9C4207D003F5A0539C4203D0B4
:100B900003F580639C4211D1AB69B3F5007F00D0AF
:100BA00033BB6B69B3F5807F00D03BBB28F4406852
:100BB0006B6948EA8308AB6948EA8308C4F8048093
:100BC000A7616B68A3632662BDE8F081CB680BB1B7
:100BD000082B07D126F08006EB6846EA031626F0BC
:100BE0004006CEE741F2D9710848FFF756FCF1E71D
:100BF00041F2E7710548FFF750FCD2E741F2E87196
:100C00000248FFF74AFCD1E7002C014018550008C4
:100C100070B504460D4616465AB1042A09D0082A72
:100C200007D00C2A05D0102A03D0142A01D03C2A60
:100C30003CD12B68602B0DD0702B0BD0904A934287
:100C400008D01032934205D01032934202D01032B5
:100C5000934231D1AB680BB1022B33D12B690BB16D
:100C6000042B35D194F83C30012B00F00681012390
:100C700084F83C30022384F83D30142E55D8DFE848
:100C800016F02D005400540054005B005400540032
:100C900054008000540054005400A000540054003C
:100CA0005400C100540054005400DE0040F61C61A2
:100CB0007448FFF7F2FBBCE740F61D617148FFF78F
:100CC000ECFBC7E740F61E616E48FFF7E6FBC5E7A1
:100CD00040F61F616B48FFF7E0FBC3E723686A4AF1
:100CE00093420FD0B3F1804F0CD002F5A052934243
:100CF00008D002F58062934204D040F62B6161482F
:100D0000FFF7CBFB29462068FFF77EFD2268936939
:100D100043F0080393612268936923F0040393610D
:100D20002268936929690B439361012384F83D305C
:100D3000002084F83C0070BD2368534A93420BD0D6
:100D4000B3F1804F08D002F5A052934204D040F690
:100D50003C614C48FFF7A1FB29462068FFF7F6FEEF
:100D60002268936943F4006393612268936923F4D2
:100D70008063936122689369296943EA012393613F
:100D8000D3E72368404A934207D0B3F1804F04D0A1
:100D900040F64D613B48FFF780FB29462068FFF78E
:100DA00097FD2268D36943F00803D3612268D369B1
:100DB00023F00403D3612268D36929690B43D3610B
:100DC000B3E72368304A934207D0B3F1804F04D091
:100DD00040F65E612B48FFF760FB29462068FFF76D
:100DE000D9FD2268D36943F40063D3612268D369D3
:100DF00023F48063D3612268D369296943EA01231C
:100E0000D36192E72268204B9A4204D040F66F618A
:100E10001C48FFF742FB29462068FFF79BFC22682D
:100E2000536D43F0080353652268536D23F00403A8
:100E300053652268536D29690B43536575E7226832
:100E4000114B9A4204D04FF468610E48FFF725FB1E
:100E500029462068FFF7AAFC2268536D43F400631B
:100E600053652268536D23F4806353652268536D84
:100E7000296943EA0123536557E702205BE700BF76
:100E80004000010018550008002C014070B50446D0
:100E90000D4616461A4B98420FD0B0F1804F0CD039
:100EA00003F5A053984208D003F58063984204D01C
:100EB00041F6C5211348FFF7F0FA5DB1042D09D0C2
:100EC000082D07D00C2D05D0102D03D0142D01D0E6
:100ED0003C2D0ED105F01F05012303FA05F2236A0C
:100EE00023EA02032362236A06FA05F51D432562FD
:100EF00070BD41F6C6210348FFF7CFFAEAE700BF0D
:100F0000002C01401855000838B504460D4603680A
:100F10003A4A934218D0B3F1804F22D0384A9342D4
:100F200028D0384A93422AD040F266513648FFF71B
:100F3000B4FA0C2D2BD8DFE805F0252A2A2A4E2AF0
:100F40002A2A542A2A2A5A000029F2D00429F0D049
:100F50000829EED00C29ECD01029EAD01429DAD1D6
:100F6000E7E7002DE5D0042DE3D0082DE1D00C2DCE
:100F7000D4D1DEE7002DDCD0042DD2D1D9E7002D6D
:100F8000D7D0D1E72268D36843F00203D3600122AF
:100F900029462068FFF77AFF2368184A934207D052
:100FA00002F5A052934203D002F58062934203D12E
:100FB0005A6C42F400425A6422689168134B0B4009
:100FC000062B06D0B3F5803F03D0136843F001032E
:100FD0001360002038BD2268D36843F00403D36057
:100FE000D5E72268D36843F00803D360CFE72268CF
:100FF000D36843F01003D360C9E700BF002C014061
:10100000004001400044014018550008070001005D
:10101000F8B504460D4603684A4A934213D0B3F12B
:10102000804F10D0A2F58E3293420CD002F5806230
:10103000934208D002F59632934204D040F26761A1
:101040004148FFF72AFA2B686BB1102B0BD0202BED
:1010500009D0302B07D0402B05D0502B03D0602B6C
:1010600001D0702B26D1AB68802B00D043BB94F805
:101070003C30012B64D0012384F83C30022384F8F7
:101080003D3023685E689F682E4A93421ED026F04A
:1010900070062B681E4327F08007AB683B4322682D
:1010A000566022689360012384F83D30002084F864
:1010B0003C00F8BD4FF4CD612348FFF7EEF9D2E7CD
:1010C00040F269612048FFF7E8F9D0E76B6863B345
:1010D000B3F5801F29D0B3F5001F26D0B3F5401F0C
:1010E00023D0B3F5800F20D0B3F5A00F1DD0B3F5FA
:1010F000C00F1AD0B3F5E00F17D0B3F5000F14D01E
:10110000B3F5100F11D0B3F5200F0ED0B3F5300F9B
:101110000BD0B3F5400F08D0B3F5500F05D0B3F5A1
:10112000600F02D0B3F5700F04D126F470066B681F
:101130001E43ACE740F27B610348FFF7AEF9F4E7EA
:101140000220B6E7002C01405055000870B5064655
:101150000D460368664A93420CD002F5A0529342B2
:1011600008D002F58062934204D040F2AA6161483F
:10117000FFF793F92B68B3F5006F01D0002B57D11F
:101180006B68B3F5806F01D0002B57D1AB6843B1CA
:10119000B3F5807F05D0B3F5007F02D0B3F5407F73
:1011A00052D1EB68FF2B55D82B69B3F5805F01D086
:1011B000002B55D16B6913B1B3F5005F56D1AB6904
:1011C0000F2B59D8AB6AB3F5804F01D0002B59D102
:1011D00096F83C30012B00F08880012386F83C30E3
:1011E000EB6823F44074AB681C4324F480646B68A0
:1011F0001C4324F400642B681C4324F480542B69A2
:101200001C4324F400546B691C4324F48044AB6AEF
:101210001C4324F47024AB6944EA03443268344B21
:101220009A4235D033685C64002086F83C0070BD7B
:1012300040F2AB612F48FFF730F9A1E740F2AC6113
:101240002C48FFF72AF9A1E740F2AD612948FFF7E2
:1012500024F9A6E740F2AE612648FFF71EF9A3E79E
:1012600040F2AF612348FFF718F9A3E74FF4D661C6
:101270002048FFF712F9A2E740F2B1611D48FFF7DD
:101280000CF99FE740F2B2611A48FFF706F99FE7B1
:10129000EB69B3F1807F00D0ABB92B6A13B1B3F126
:1012A000007F16D16B6A0F2B19D824F470046B6A77
:1012B00044EA035424F08074EB691C4324F0007466
:1012C0002B6A1C43AEE740F2C7610A48FFF7E5F816
:1012D000E3E74FF4D9610748FFF7DFF8E2E740F2B0
:1012E000C9610448FFF7D9F8DFE702209FE700BF94
:1012F000002C014050550008104B1B680BB9012011
:10130000704710B504464FF47A70B0FBF3F30C4A03
:101310001068B0FBF3F001F09BFB68B90F2C01D90A
:1013200001200AE0002221464FF0FF3001F04AFB85
:10133000044B1C60002000E0012010BD00000020D4
:10134000080000200400002010B5032001F01CFB61
:101350000020FFF7D1FF10B10124204610BD044644
:10136000FFF7E0F9F9E70000034A13680349096849
:101370000B441360704700BF5001002000000020A4
:10138000014B1868704700BF5001002030B583B092
:101390000446204B9B6D13F0805F0BD001F096FA52
:1013A000B0F5007F17D0802C1FD82DD0702C2DD0F9
:1013B00000211BE0174DAB6D43F08053AB65AB6D67
:1013C00003F080530193019B01F080FAAB6D23F091
:1013D0008053AB65E4E7802C03D9A02C03D902210C
:1013E00004E0002102E0012100E003210A4A136821
:1013F00023F007030B431360136803F007038B42CA
:1014000006D1002003B030BD0221EFE70121EDE756
:101410000120F7E70010024000200240284A9368AC
:10142000D26802F0030213F00C030AD00C2B06D092
:10143000042B1FD0082B20D00020024610E0012AE8
:10144000F6D11F4A126812F0080F0CD11C4AD2F8CC
:101450009420C2F303221B4951F8222043B10020FB
:101460000C2B0DD07047164A1268C2F30312F2E734
:101470001046F5E714480022F2E714480022EFE78F
:101480000F4BDB6803F00303022B16D0032B00D1B4
:101490000E4A0B49C868C0F30210431CC868C0F369
:1014A000062002FB00F0B0FBF3F0CB68C3F341630E
:1014B00001335B00B0FBF3F0D4E7034AE9E700BF78
:1014C00000100240F05600080024F40000127A00D8
:1014D000002800F0CD83F0B583B00446036813B153
:1014E00013F03F0F46D0924B9D6805F00C05DE6867
:1014F00006F00306236813F0100F00F09580A3692F
:10150000012B3DD8E369FF2B40D8236AABB1102BE8
:1015100013D0202B11D0302B0FD0402B0DD0502BBF
:101520000BD0602B09D0702B07D0802B05D0902BCF
:1015300003D0A02B01D0B02B2ED1002D34D00C2DF8
:1015400030D0A369002B00F0D980794A136843F0AA
:1015500001031360FFF714FF0746754B1B6813F078
:10156000020F40F0B880FFF70BFFC01B0228F4D930
:10157000032088E34FF4CF716E48FEF78EFFB2E789
:1015800040F2A7116B48FEF788FFBBE74FF4D47118
:101590006848FEF782FFB8E740F2A9116548FEF7F8
:1015A0007CFFCAE7012ECCD1614B1B6813F0020F00
:1015B00003D0A369002B00F05D83206A5C4B1B689D
:1015C00013F0080F67D05A4B1B6803F0F0039842E2
:1015D00068D9FFF7DBFE002840F04E83544B1A68B1
:1015E00042F008021A601A6822F0F002216A0A43E7
:1015F0001A605A6822F47F42E16942EA01225A6085
:10160000FFF70CFF4A4B9B68C3F303134A4AD35CB2
:1016100003F01F03D840494B1860494B1868FFF787
:101620006BFE002840F02F83236813F0010F00F0B9
:10163000948063682BB1B3F5803F02D0B3F5A02F3F
:1016400070D1082D00F080800C2D7BD06368B3F53D
:10165000803F00F0A980B3F5A02F00F0AB80344BA1
:101660001A6822F480321A601A6822F480221A6002
:101670006368002B00F0AB80FFF782FE07462C4B1F
:101680001B6813F4003F68D1FFF77AFEC01B642883
:10169000F5D90320F7E2264BD3F894301B0903F069
:1016A000F00394E7224B1A6842F008021A601A68A5
:1016B00022F0F002216A0A431A605A6822F47F423B
:1016C000E16942EA01225A60206AFFF75FFE0028C2
:1016D00096D00120D7E2164B1A6842F008021A6031
:1016E0001A6822F0F002216A0A431A605A6822F44A
:1016F0007F42E16942EA01225A6095E70C4A136889
:1017000023F001031360FFF73BFE0746084B1B68FD
:1017100013F0020F88D0FFF733FEC01B0228F5D963
:101720000320B0E240F211210248FEF7B6FE88E73E
:101730000010024088550008D85600080800002014
:1017400004000020032E81D1AA4B1B6813F4003F34
:1017500003D06368002B00F09182236813F0020F1E
:1017600063D0E36813B1B3F5807F3FD123691F2BAA
:1017700042D8042D48D00C2D44D0E368002B7ED0F5
:101780009C4A136843F480731360FFF7F9FD064623
:10179000984B1B6813F4806F68D1FFF7F1FD801B35
:1017A0000228F5D903206EE2924A136843F480338D
:1017B00013605DE703F18043A3F53C331A6842F4FC
:1017C00080221A601A6842F480321A6050E7FFF7EC
:1017D000D7FD0746874B1B6813F4003FBDD0FFF7CA
:1017E000CFFDC01B6428F5D903204CE24FF41171E2
:1017F0008148FEF752FEB9E740F245217E48FEF7E8
:101800004CFEB6E7022EB8D17A4B1B6813F4806FFA
:1018100003D0E368002B00F03382764A536823F04C
:10182000F853216943EA01635360236813F0080FFA
:1018300056D06369012B36D86369002B39D06D4AC5
:10184000D2F8943043F00103C2F89430FFF798FDCA
:101850000646684BD3F8943013F0020F40D1FFF7DF
:101860008FFD801B0228F4D903200CE2614A5368E3
:1018700023F0F853216943EA01635360D5E75D4AD9
:10188000136823F480731360FFF77AFD0646594B03
:101890001B6813F4806FC8D0FFF772FD801B02280D
:1018A000F5D90320EFE140F285215348FEF7F5FD1D
:1018B000C2E7504AD2F8943023F00103C2F89430C2
:1018C000FFF75EFD06464B4BD3F8943013F0020F42
:1018D00006D0FFF755FD801B0228F4D90320D2E182
:1018E000236813F0040F00F08C80A368012B01D94A
:1018F000052B3BD13F4B9B6D13F0805F3CD13D4BA3
:101900009A6D42F080529A659B6D03F0805301936B
:10191000019B0126394B1B6813F4807F2ED0A368EE
:10192000012B3FD0052B45D0324BD3F8902022F02D
:101930000102C3F89020D3F8902022F00402C3F8EB
:101940009020A368002B43D0FFF71AFD0746294BD0
:10195000D3F8903013F0020F52D1FFF711FDC01BE6
:1019600041F288339842F2D903208CE14FF436716A
:101970002148FEF792FDBDE70026CBE71F4A13681A
:1019800043F480731360FFF7FBFC07461B4B1B6897
:1019900013F4807FC3D1FFF7F3FCC01B0228F5D9F5
:1019A000032070E1134AD2F8903043F00103C2F8EB
:1019B0009030C6E70F4BD3F8902042F00402C3F8F2
:1019C0009020D3F8902042F00102C3F89020B8E7AD
:1019D000FFF7D6FC0746074BD3F8903013F0020F01
:1019E0000ED0FFF7CDFCC01B41F288339842F2D9EC
:1019F000032048E1001002408855000800700040B4
:101A0000FEB9236813F0200F3ED0636A012B1ED865
:101A1000636A13B3A44AD2F8983043F00103C2F8C2
:101A20009830FFF7ADFC06469F4BD3F8983013F083
:101A3000020F29D1FFF7A4FC801B0228F4D9032050
:101A400021E1994A936D23F080539365D9E740F2E1
:101A50003D319648FEF721FDDAE7934AD2F89830F7
:101A600023F00103C2F89830FFF78AFC06468E4B3C
:101A7000D3F8983013F0020F06D0FFF781FC801BDB
:101A80000228F4D90320FEE0A36A022B2DD8A36A12
:101A9000002B00F0F7800C2D00F0BC80022B2AD028
:101AA000814B1A6822F080721A601B6813F0006F75
:101AB00004D17D4AD36823F00303D3607A4AD36804
:101AC00023F0887323F48033D360FFF759FC044676
:101AD000754B1B6813F0007F00F09A80FFF750FCF5
:101AE000001B0228F4D90320CDE040F266316F4894
:101AF000FEF7D3FCCBE7E36A032B31D8236B013B22
:101B0000072B33D8636B083B4E2B35D8A36B023BB6
:101B10001D2B37D8E36B022B05D0042B03D0062BEB
:101B200001D0082B34D1236C022B05D0042B03D019
:101B3000062B01D0082B31D15B4A136823F0807348
:101B40001360FFF71DFC0546574B1B6813F0007F21
:101B50002AD0FFF715FC401B0228F5D9032092E09C
:101B60004FF45C715148FEF798FCC7E740F27131C1
:101B70004E48FEF792FCC5E740F272314B48FEF743
:101B80008CFCC3E74FF45D714848FEF786FCC1E763
:101B900040F276314548FEF780FCC4E740F27731E9
:101BA0004248FEF77AFCC7E73F4AD36840491940EC
:101BB000E36A206B013843EA0013606B43EA0023B9
:101BC000E06B4008013843EA4053206C400801387C
:101BD00043EA4063A06B43EAC0630B43D3601368DE
:101BE00043F080731360D36843F08073D360FFF7D2
:101BF000C7FB04462C4B1B6813F0007F06D1FFF790
:101C0000BFFB001B0228F5D903203CE000203AE08E
:101C1000002038E0012B38D0234BDB6803F00301B0
:101C2000E26A914233D103F07002216B0139B2EBC9
:101C3000011F2ED103F4FE42616BB2EB012F2AD1BA
:101C400003F07842A16BB2EBC16F26D103F4C0015F
:101C5000E26B5208013AB1EB425F20D103F0C0635E
:101C6000226C5208013AB3EB426F1AD100200AE00D
:101C700001207047012006E0012004E0012002E07D
:101C8000012000E0002003B0F0BD0120FBE70120AF
:101C9000F9E70120F7E70120F5E70120F3E701204C
:101CA000F1E70120EFE700BF00100240885500086F
:101CB0008C809D01002800F0F58070B50D4604462B
:101CC0000368013B0E2B28D8042D2CD8794B1B68B8
:101CD00003F00703AB420BD2764A136823F00703E5
:101CE0002B431360136803F00703AB4240F0DC8022
:101CF000236813F0010F50D06368032B19D8636871
:101D0000032B1CD0022B3AD0002B3FD16A4A126819
:101D100012F0020F19D10120B1E040F22E416748C4
:101D2000FEF7BBFBD0E740F22F416448FEF7B5FB5E
:101D3000CCE740F246416148FEF7AFFBDFE75E4A81
:101D4000126812F0007F00F0B1805B498A6822F0CF
:101D5000030213438B60FFF713FB0646564B9B6849
:101D600003F00C036268B3EB820F16D0FFF708FB99
:101D7000801B41F288339842F0D903207FE04E4A1D
:101D8000126812F4003FE0D1012078E04A4A12685C
:101D900012F4806FD9D1012071E0236813F0020F93
:101DA00018D0A3687BB1802B0DD0902B0BD0A02B2B
:101DB00009D0B02B07D0C02B05D0D02B03D0E02BFF
:101DC00001D0F02B5CD13C4A936823F0F003A1686A
:101DD0000B439360374B1B6803F00703AB420AD9F0
:101DE000344A136823F007032B431360136803F08E
:101DF0000703AB425CD1236813F0040F14D0E368EF
:101E00005BB1B3F5806F08D0B3F5A06F05D0B3F523
:101E1000C06F02D0B3F5E06F38D1274A936823F43E
:101E2000E063E1680B439360236813F0080F15D05B
:101E300023695BB1B3F5806F08D0B3F5A06F05D00F
:101E4000B3F5C06F02D0B3F5E06F25D11A4A93689D
:101E500023F46053216943EAC1039360FFF7DEFA7C
:101E6000154B9B68C3F30313154AD35C03F01F03A0
:101E7000D840144B1860144B1868FFF73DFA70BD3A
:101E800040F2A2410D48FEF708FB9CE740F2C14139
:101E90000A48FEF702FBC0E74FF499610748FEF7D6
:101EA000FCFAD3E7012070470120E8E70120E6E7CC
:101EB0000120E4E70020024000100240885500089D
:101EC000D85600080800002004000020014B1868C4
:101ED000704700BF0800002008B5FFF7F7FF054B6B
:101EE0009B68C3F30223044AD35C03F01F03D8406A
:101EF00008BD00BF00100240E856000808B5FFF713
:101F0000E5FF054B9B68C3F3C223044AD35C03F08F
:101F10001F03D84008BD00BF00100240E85600086B
:101F2000F8B504460D460368032B24D86368013BCB
:101F3000072B26D8A368083B4E2B28D8A3697C4AD8
:101F4000134204D023F0887323F4803323B140F686
:101F500052317848FEF7A1FA774BDB6813F0030F94
:101F60002AD0754BDB6803F003032268934214D038
:101F700001263046F8BD40F64F316E48FEF78DFA27
:101F8000D4E74FF435616B48FEF787FAD2E740F6A5
:101F900051316848FEF781FAD0E7002A00F0C58089
:101FA000654BDB68C3F3021301336268934201D0CF
:101FB0000126DEE7002609E02368022B5AD0032B16
:101FC0005FD0012B45D00126002ED2D15A4A13688A
:101FD00023F080631360FFF7D3F90746564B1B6865
:101FE00013F0006F05D0FFF7CBF9C31B022BF5D917
:101FF0000326002EBDD1002D57D1E368023B1D2BD7
:102000004DD84D490B6923F0784323F4FE43A06873
:10201000E268D20642EA002213430B61464A136883
:1020200043F080631360FFF7ABF90546424B1B6832
:1020300013F0006F05D1FFF7A3F9401B0228F5D973
:102040000326002E95D13C4A1369A1690B43136105
:102050008FE7394A126812F0020F1ED03648C26864
:1020600022F073026168013943EA01131343C3602C
:102070000026A9E7304A126812F4806FEED10126DB
:10208000A2E72D4A126812F4003FE7D12A4A1268EB
:1020900012F4802FE2D1012696E7012694E740F65C
:1020A000A5312448FEF7F9F9ABE7012D18D0636993
:1020B000022B05D0042B03D0062B01D0082B2ED1E8
:1020C0001D48026922F0C06222F4FE42A1686369E1
:1020D0005B08013B5B0643EA0123134303619DE771
:1020E0002369022B05D0042B03D0062B01D0082B2B
:1020F0000FD11148026922F4C00222F4FE42A16805
:1021000023695B08013B5B0543EA01231343036139
:1021100084E740F6C9310748FEF7BFF9E9E740F622
:10212000DB310448FEF7B9F9CAE7012621E700BF11
:1021300000001101C0550008001002402DE9F041D7
:1021400082B0044603685F4A1A4216D0236813F42B
:10215000006F37D0E36B2BB1B3F5000F02D0B3F5AE
:10216000400F0FD1E36BB3F5000F10D0B3F5400F64
:102170001CD09BB10126374626E0CB215248FEF702
:102180008CF9E3E7D3215048FEF787F9EAE74F4A95
:10219000D36843F48033D360002708E00021201D7A
:1021A000FFF7BEFE074610B106460DE00027474A7E
:1021B000D2F8883023F44003E16B0B43C2F8883037
:1021C000002601E000263746236813F4003F00F0A4
:1021D0008680236D43B1B3F5807F05D0B3F5007FD2
:1021E00002D0B3F5407F51D1384B9B6D13F0805F27
:1021F00052D1364B9A6D42F080529A659B6D03F036
:1022000080530193019B4FF00108314A136843F456
:1022100080731360FFF7B4F805462D4B1B6813F469
:10222000807F05D1FFF7ACF8401B0228F5D90327C2
:10223000002F4FD1254BD3F8903013F4407315D0B5
:10224000226D9A4212D0214AD2F8903023F4407382
:10225000D2F8901041F48031C2F89010D2F890106A
:1022600021F48031C2F89010C2F8903013F0010FC1
:1022700015D1002F40F04981144AD2F8903023F450
:102280004073216D0B43C2F8903024E04FF4A371EA
:102290000D48FEF702F9A7E74FF00008B5E7FFF792
:1022A0006FF80546094BD3F8903013F0020FE0D1D8
:1022B000FFF766F8401B41F288339842F2D90327B2
:1022C000D7E700BF63EF0600C055000800100240CA
:1022D000007000403E46B8F1000F40F018812368BE
:1022E00013F0010F10D0236A012B04D9032B02D065
:1022F000022B40F01281A84AD2F8883023F0030361
:10230000216A0B43C2F88830236813F0020F11D002
:10231000636A33B1042B04D00C2B02D0082B40F09D
:1023200002819D4AD2F8883023F00C03616A0B4386
:10233000C2F88830236813F0200F14D0A36A4BB181
:10234000B3F5806F06D0B3F5406F03D0B3F5006FDF
:1023500040F0EF80904AD2F8883023F44063A16ABD
:102360000B43C2F88830236813F4007F14D0636BEA
:102370004BB1B3F5802F06D0B3F5002F03D0B3F5E2
:10238000402F40F0DC80844AD2F8883023F4402388
:10239000616B0B43C2F88830236813F4806F14D04C
:1023A000A36B4BB1B3F5801F06D0B3F5001F03D06C
:1023B000B3F5401F40F0C980774AD2F8883023F443
:1023C0004013A16B0B43C2F88830236813F0400F11
:1023D00011D0E36A33B1B3F5805F03D0B3F5005F8A
:1023E00040F0B9806C4AD2F8883023F44053E16A57
:1023F0000B43C2F88830236813F4807F11D0236B1D
:1024000033B1B3F5803F03D0B3F5003F40F0A9806E
:10241000614AD2F8883023F44033216B0B43C2F871
:102420008830236813F4005F1DD0236C4BB1B3F1E7
:10243000806F06D0B3F1006F03D0B3F1406F40F06E
:102440009680554AD2F8883023F04063216C0B43C4
:10245000C2F88830236CB3F1006F00F08E80B3F1C6
:10246000806F00F08F80236813F4802F1DD0636C81
:102470004BB1B3F1806F06D0B3F1006F03D0B3F16D
:10248000406F40F08D80444AD2F8883023F040639A
:10249000616C0B43C2F88830636CB3F1006F00F0DD
:1024A0008580B3F1806F00F08680236813F4804F3D
:1024B00015D0A36C33B1B3F1805F03D0B3F1405FAB
:1024C00040F08280344AD2F8883023F04053A16C27
:1024D0000B43C2F88830A36CB3F1805F7AD02368D5
:1024E00013F4004F0DD0E36C13B1B3F1804F7AD1E8
:1024F000294AD2F8883023F08043E16C0B43C2F8BC
:102500008830304602B0BDE8F0813E46E3E6224A1C
:10251000936D23F080539365E1E640F29B111F48D1
:10252000FDF7BBFFE7E640F2A5111C48FDF7B5FF3C
:10253000F7E640F2D9111948FDF7AFFF0AE74FF46B
:10254000F1711648FDF7A9FF1DE740F2E9111348A4
:10255000FDF7A3FF30E740F2F1111048FDF79DFFB2
:1025600040E740F209210D48FDF797FF50E740F2A0
:1025700022210A48FDF791FF63E7D36843F48013F3
:10258000D36070E70121201DFFF7CAFC00283FF44B
:102590006AAF064667E700BF00100240C05500085A
:1025A0004FF41A711348FDF778FF6CE7D36843F4D2
:1025B0008013D36079E70121201DFFF7B1FC0028CB
:1025C0003FF473AF064670E74FF422710948FDF7F8
:1025D00064FF77E70221201DFFF7A2FC00283FF4EB
:1025E0007EAF06467BE74FF42D710248FDF755FF9D
:1025F0007EE700BFC0550008024A136843F0040399
:1026000013607047001002402DE9F04782B0074682
:102610000C46B0F1904F0ED0954B98420BD003F57D
:102620008063984207D003F5A053984203D0B321AA
:102630009048FDF732FF23689AB212B11B0C1B04BD
:102640001BB1B4218B48FDF728FF6368012B20D90B
:10265000112B1ED0022B1CD0122B1AD0864A93426B
:1026600017D002F58012934213D002F580129342E4
:102670000FD0A2F5F81293420BD002F580129342CC
:1026800007D002F58012934203D0032B01D00B2B0D
:1026900004D1A368022B06D80026AEE0B521754808
:1026A000FDF7FBFEF5E7B6217248FDF7F6FEF3E70E
:1026B00023690F2B00F2C980F208083257F8220074
:1026C00006F0070399000F238B4020EA03002369DB
:1026D0008B40034347F822303A684FEA460A032307
:1026E00003FA0AF36FEA030922EA0302636803F0BC
:1026F000030303FA0AF313433B6063685A1E012A7B
:1027000003D9112B01D0122B15D1E368032B00F252
:10271000A180BA6809EA0202E36803FA0AF31343E4
:10272000BB607B6823EA08086368C3F30013B34007
:1027300043EA08037B60FB6809EA0309A36803FA1C
:102740000AF343EA0903FB60636813F0805F53D028
:102750004A4B1A6E42F001021A661B6E03F0010327
:102760000193019BB208911C454B53F8210006F0E0
:10277000030399000F238B4020EA0300B7F1904F29
:102780006FD03B4B9F426ED003F580639F4266D073
:1027900007238B4003430232394941F82230394B39
:1027A0001A68EB4322EA0501606810F4803F01D00B
:1027B00045EA0201334A1160526803EA0201606887
:1027C00010F4003F01D045EA02012E4A51609268A0
:1027D00003EA0201606810F4801F01D045EA02019B
:1027E000284A9160D2681340616811F4001F01D03B
:1027F00045EA0203234AD3600136256835FA06F319
:1028000033D04FF0010808FA06F818EA0505F3D0AE
:102810006368022B02D0122B7FF45EAFB7F1904FAA
:102820003FF446AF124B9F423FF442AF03F5806343
:102830009F423FF43DAF03F5A0539F423FF438AFB2
:10284000C5210C48FDF729FE32E7C6210948FDF7EE
:1028500024FE31E7DA210748FDF71FFE59E702237E
:1028600097E7002395E7012393E702B0BDE8F087DF
:1028700000040048F8550008000011100010024044
:10288000000001400004014070B5054614460E46A4
:1028900021B1012C08D86CB1AE6170BD4FF4D97173
:1028A0000548FDF7FAFDF4E740F2B3110248FDF7E1
:1028B000F4FDF0E7AE62F0E7F8550008024A13684D
:1028C00043F480731360704700700040024B186837
:1028D00000F4C060704700BF0070004010B50446AF
:1028E000B0F5007F02D0B0F5806F12D1B4F5007F53
:1028F00014D0214B1B6803F4C063B3F5806F39D04B
:102900001D4A136823F4C06343F4806313600020FE
:1029100010BDA8211948FDF7C0FDE7E7164B1B685D
:1029200003F4C063B3F5007F20D0134A136823F487
:10293000C06343F400731360114B1B68322202FB27
:1029400003F3104AA2FB03239B0C013300E0013B7D
:10295000094A526912F4806F01D0002BF7D1064B5F
:102960005B6913F4806F03D10020D1E70020CFE72B
:102970000320CDE70020CBE7007000403056000870
:102980000800002083DE1B4310B50446C31E042B41
:102990000FD80A4AD36823F4E0631B041B0C2402FB
:1029A00004F4E064234343F0BF6343F40033D36093
:1029B00010BDA7210248FDF770FDEAE700ED00E039
:1029C0006856000870B505460C4616460F2A25D8ED
:1029D0000F2C28D81B4BDB68C3F30223C3F107017C
:1029E000042928BF04211A1D062A21D9033B4FF0D0
:1029F000FF3202FA01F124EA01049C4002FA03F3D7
:102A000026EA03063443002D14DB2401E4B205F169
:102A1000604505F5614585F8004370BDBF210A4852
:102A2000FDF73BFDD4E7C0210748FDF736FDD1E7B0
:102A30000023DCE705F00F052401E4B2034B5C55ED
:102A4000EBE700BF00ED00E06856000814ED00E081
:102A50000138B0F1807F0BD24FF0E0235861054A76
:102A6000F02182F823100020986107221A61704734
:102A70000120704700ED00E038B5044642688E4BF7
:102A80009A4200F28480A368B3F1805F04D01BB146
:102A9000B3F5805F40F081802268884B9A4200F055
:102AA0008280E368B3F5805F07D033B1B3F5405F50
:102AB00003D0B3F5005F40F08280236A1BB1B3F509
:102AC000006F40F0828023692BB1B3F5806F02D094
:102AD000B3F5C06F7FD1636933F00C0200D123B925
:102AE00040F63A317648FDF7D8FCA36943B1B3F517
:102AF000807F05D0B3F5007F02D0B3F5407F70D161
:102B0000E36913B1B3F5004F71D1A3682269134390
:102B100062691343E269134321680868694A024005
:102B200013430B602268536823F44053E1680B435E
:102B30005360A1692268614B9A4201D0236A19430C
:102B4000936823F430630B43936023685E4A934297
:102B500053D05E4A934264D0584A93427AD01025AB
:102B6000564A934200F09780E369B3F5004F00F0B6
:102B70000681082D00F28281DFE815F04F0158012F
:102B8000620180016D01800180018001770140F6C2
:102B90002D314B48FDF781FC75E740F62E31484852
:102BA000FDF77BFC78E7E368002B8CD0B3F5005F82
:102BB00089D040F631314248FDF76FFC83E740F69B
:102BC00035313F48FDF769FC77E740F636313C4840
:102BD000FDF763FC77E740F639313948FDF75DFCD6
:102BE00079E740F63B313648FDF757FC88E740F679
:102BF0003C313348FDF751FC87E702F55842D2F8E3
:102C0000882002F00302032A09D8DFE802F0020458
:102C100038060125A4E70425A2E70825A0E710252A
:102C20009EE702F5E632D2F8882002F00C020C2A68
:102C30000ED8DFE802F0070D0D0D090D0D0D260D64
:102C40000D0D0B0000258BE7042589E7082587E794
:102C5000102585E702F5C832D2F8882002F44062D8
:102C6000B2F5006F0FD005D87AB1B2F5806F0ED1F2
:102C7000042575E7B2F5406F0BD1082570E70225F2
:102C80006EE702256CE702256AE7002568E7102554
:102C900066E7102564E7082D00F2FB80DFE815F0F9
:102CA0001800F9003300F9003000F900F900F900CC
:102CB00009004FF4004010E080969800008000402A
:102CC000A0560008F369FFEF0038014000440040BF
:102CD000FFF702F9002800F0DE80626802EB420391
:102CE000834200F2DA80B0EB023F00F2D880082D78
:102CF0003AD8DFE805F00A39183922393939300075
:102D0000FEF78CFBE6E76C48E7E7FFF7E5F8010E16
:102D100003026268500818184FF0000341F10001E7
:102D2000FDF786FA22E0530800256448181845F19B
:102D300000012B46FDF77CFA18E0FEF76FFB00253B
:102D4000010E03026268500818182B4641F1000179
:102D5000FDF76EFA0AE0500800252B4600F500004A
:102D60002946FDF765FA01E001250020A0F5407233
:102D7000534B9A4200F295802368D86096E0082D64
:102D80003AD8DFE805F0050F1A392539393930000E
:102D9000FFF7A2F86268530803EB4003B3FBF2F3BA
:102DA0009BB22BE0FFF7AAF86268530803EB4003DD
:102DB000B3FBF2F39BB2002520E06268530803F1F5
:102DC000F47303F59043B3FBF2F39BB2002515E0D7
:102DD000FEF724FB6268530803EB4003B3FBF2F3F6
:102DE0009BB200250AE06268530803F58033B3FB09
:102DF000F2F39BB2002501E001250023A3F11001AD
:102E00004FF6EF7291424ED89AB222F00F02C3F3FE
:102E1000420313432268D36048E0FFF75DF862681D
:102E200000EB5203B3FBF2F39BB229E0FFF766F825
:102E3000626800EB5203B3FBF2F39BB200251FE084
:102E40006268530803F5740303F51053B3FBF2F300
:102E50009BB2002514E0FEF7E1FA626800EB520332
:102E6000B3FBF2F39BB200250AE06268530803F556
:102E70000043B3FBF2F39BB2002501E001250023E0
:102E8000A3F110014FF6EF7291420ED82268D36081
:102E90000CE001250AE0002508E0012506E00125F7
:102EA00004E0012502E0012500E00125002323665E
:102EB0006366284638BD00BF0024F400000024F4F7
:102EC000FFFC0F0010B50446436AFF2B00F294800C
:102ED000636A13F0010F0CD0A36A1BB1B3F5003F76
:102EE00040F090802268536823F40033A16A0B43BA
:102EF0005360636A13F0020F0CD0E36A1BB1B3F5A1
:102F0000803F40F085802268536823F48033E16A73
:102F10000B435360636A13F0040F0BD0236B13B1A0
:102F2000B3F5802F7AD12268536823F48023216B74
:102F30000B435360636A13F0080F0BD0636B13B13C
:102F4000B3F5004F70D12268536823F40043616BDE
:102F50000B435360636A13F0100F0BD0A36B13B1D4
:102F6000B3F5805F66D12268936823F48053A16B28
:102F70000B439360636A13F0200F0BD0E36B13B124
:102F8000B3F5005F5CD12268936823F40053E16BD2
:102F90000B439360636A13F0400F1CD023683E4AD2
:102FA000934208D0A2F57442934204D040F6844183
:102FB0003A48FDF772FA236C13B1B3F5801F45D17F
:102FC0002268536823F48013216C0B435360236CF5
:102FD000B3F5801F40D0636A13F0800F0BD0A36C51
:102FE00013B1B3F5002F50D12268536823F40023A6
:102FF000A16C0B43536010BD40F655412748FDF7C7
:103000004CFA65E740F65A412448FDF746FA69E76D
:1030100040F661412148FDF740FA74E740F6684107
:103020001E48FDF73AFA7EE740F66F411B48FDF770
:1030300034FA88E740F676411848FDF72EFA92E711
:1030400040F67D411548FDF728FA9CE740F685419A
:103050001248FDF722FAB3E7636C43B1B3F5001FE2
:1030600005D0B3F5800F02D0B3F5C00F07D12268A9
:10307000536823F4C003616C0B435360ABE740F625
:103080008A410648FDF709FAF1E740F69241034804
:10309000FDF703FAA8E700BF00380140A05600087A
:1030A0002DE9F84305460F4616469946DDF820807F
:1030B0002C68E46937EA04030CBF4FF0010C4FF0B1
:1030C000000CB4451DD1B8F1FF3FF1D0FEF758F91F
:1030D000A0EB0900404502D8B8F1000FE8D12A68FA
:1030E000136823F4D07313602A68936823F00103F4
:1030F000936020236B67AB67002385F87030032053
:1031000000E00020BDE8F8832DE9F04182B01E46C2
:10311000436F202B55D104460D469046002954D0CC
:10312000002A54D090F87030012B52D0012380F83F
:1031300070300023C36721234367FEF721F9074658
:10314000A4F85080A4F85280A368B3F5805F02D041
:103150004FF0000814E0236913B14FF000080FE0AE
:10316000A84600250CE038F8023B2268C3F30803A8
:103170001385B4F8522092B2013A92B2A4F85220C8
:10318000B4F852309BB273B100963B4600228021C6
:103190002046FFF785FFF0B9002DE4D0236815F82D
:1031A000012B1A85E5E700963B4600224021204688
:1031B000FFF776FF88B920236367002384F8703017
:1031C00000E0022002B0BDE8F0810120FAE7012012
:1031D000F8E70220F6E70320F4E70320F2E72DE901
:1031E000F04383B01E46836F202B7BD104460D46EF
:1031F000904600297AD0002A7AD090F87030012BBE
:1032000078D0012380F870300023C36722238367BE
:10321000FEF7B6F80746A4F85880A4F85A80A368C9
:10322000B3F5805F06D0A3B9226972B9FF22A4F872
:103230005C2014E0226922B940F2FF12A4F85C205D
:103240000DE0FF22A4F85C2009E07F22A4F85C20B6
:1032500005E0B3F1805F0AD00022A4F85C20B4F846
:103260005C80B3F5805F0CD04FF000091EE022694E
:103270001AB97F22A4F85C20F1E73F22A4F85C2071
:10328000EDE7236913B14FF000090FE0A9460025CF
:103290000CE023689B8C08EA030329F8023BB4F88E
:1032A0005A2092B2013A92B2A4F85A20B4F85A3095
:1032B0009BB28BB100963B46002220212046FFF7AF
:1032C000EFFEC8B9002DE4D023689A8C5FFA88F32A
:1032D000134005F8013BE2E72023A367002084F8B0
:1032E000700000E0022003B0BDE8F0830120FAE79F
:1032F0000120F8E70220F6E70320F4E730B583B0B9
:1033000004460023C367FEF73BF8054622681268AF
:1033100012F0080F0CD123681B6813F0040F15D1AD
:1033200020236367A367002084F8700003B030BDDA
:103330006FF07E430093034600224FF400112046B5
:10334000FFF7AEFE0028E6D00320EFE76FF07E43E4
:1033500000932B4600224FF480012046FFF7A0FE89
:103360000028DDD00320E1E7002855D010B5044641
:103370008369002B34D00368284A93420CD0A2F50D
:103380007442934208D002F57052934204D040F246
:103390003F112348FDF781F8636F002B32D02423BF
:1033A00063672268136823F0010313602046FFF768
:1033B00063FB012813D0636A53BB2268536823F46C
:1033C000904353602268936823F02A039360226835
:1033D000136843F0010313602046FFF78FFF10BD11
:1033E00003680E4A9342D7D0A2F574429342D3D0D9
:1033F00002F570529342CFD04FF4A2710848FDF706
:103400004CF8C9E784F870302046FDF73FF9C6E76D
:103410002046FFF757FDD0E70120704700380140F4
:10342000A05600080F49D1F8883043F47003C1F862
:1034300088300D4B1A6842F001021A600020986033
:103440001A6822F0A85222F410221A604FF4805217
:10345000DA601A6822F480221A6098614FF00063E3
:103460008B60704700ED00E000100240DFF834D0C0
:10347000002103E00C4B5B58435004310B480C4BCC
:1034800042189A42F6D30B4A02E0002342F8043B6A
:10349000094B9A42F9D3FFF7C5FF00F01BF8FCF780
:1034A000C7FFFEE700000120F058000800000020E0
:1034B000700000207000002070010020FEE70A224A
:1034C000002100F0AFB90000014B1868704700BF41
:1034D0000C00002070B50D4D0D4C641BA41000268F
:1034E000A64209D10B4D0C4C01F0F2FF641BA41055
:1034F0000026A64205D170BD55F8043B9847013619
:10350000EEE755F8043B98470136F2E7E05800082B
:10351000E0580008E0580008E45800080244034658
:10352000934200D1704703F8011BF9E70FB40A4B2F
:1035300013B51C6824B1A36913B9204600F0A8FA9A
:1035400005AB049AA1680193204600F09FFC02B0ED
:10355000BDE8104004B070470C0000200FB40A4BC7
:1035600013B51C6824B1A36913B9204600F090FA82
:1035700005AB049A61680193204600F05BFF02B03E
:10358000BDE8104004B070470C0000202DE9F7435F
:103590001D465D4B1F6804460E46904627B1BB6929
:1035A00013B9384600F074FA584B9C4267D17C68D6
:1035B000B8F1020F06D0B8F1010F00F29F80002D84
:1035C000C0F29C80636EDB0705D4A389980502D402
:1035D000A06D00F018FB2146384600F0B3F9616B8E
:1035E00041B104F14403994202D0384600F07AFB1D
:1035F000002363630023A3616360A389190603D5D5
:103600002169384600F06EFBA38923F44A6323F056
:103610000303B8F1020FA3816CD001AB6A462146C7
:10362000384600F0F2FAA3891843A081002D30D16A
:10363000009D284600F04EFB0646002855D1DDF8D7
:103640000090A9454AD14FF0FF350022A26004F155
:103650004702226022610122B4F90C306261626E7D
:1036600043F00203D207A38105D413F4007F02D1F3
:10367000A06D00F0C9FA284603B0BDE8F083244BE2
:103680009C4201D1BC6893E7224B9C4208BFFC6876
:103690008EE7002ECDD0BB6913B9384600F0F8F99B
:1036A000B8F1010F08BFA389266004BF43F00103EE
:1036B000A381A28912F00803C4E904651CD0D307D2
:1036C00041BF00236D42A360A56158BFA560656E30
:1036D00015F0010515D112F4007FC8E7484600F047
:1036E000F9FA06460028AED04D46A38943F0800380
:1036F000A381D0E70025A8E7A360E8E74FF0FF35F6
:10370000B9E70025B7E700BF0C00002048580008C3
:103710006858000828580008012B2DE9F04701D00F
:10372000242B06D9FFF7D0FE162303600020BDE846
:10373000F0873A4F8E4676461EF8014BE55D15F050
:103740000805F8D12D2C34D19EF800404FF0010827
:1037500006F1020E002B5CD0102B0CD1302C0AD1BC
:103760009EF8004004F0DF04582C4DD19EF8014033
:1037700010230EF1020E08F1004C0CF1FF3C002664
:10378000BCFBF3F9354603FB19CAA4F13007092F36
:1037900018D83C46A34224DD002E1FDBA9451DD3CB
:1037A00001D1A2451ADB05FB034501261EF8014B9A
:1037B000EBE72B2C08BF9EF80040A84608BF06F197
:1037C000020EC7E7A4F14107192F01D8373CE1E702
:1037D000A4F16107192F04D8573CDBE74FF0FF36FF
:1037E000E4E7002E05DA22230360654642B9284645
:1037F0009DE7B8F1000F00D06D42002AF7D00EB15E
:103800000EF1FF311160F2E73024002BB3D1082311
:10381000B1E7302CA4D00A23ADE700BF255700083C
:10382000FFF77ABF13460A46014602480068FFF7D1
:1038300073BF00BF0C0000208A892DE9F0410546C6
:1038400010070C4658D44B68002B05DC0B6C002B82
:1038500002DC0020BDE8F081E66A002EF9D00023EA
:1038600012F480522F682B6032D0606DA3895A0702
:1038700005D56368C01A636B0BB1236CC01A0023B3
:103880000246E66A216A2846B047431CA38906D14E
:1038900029681D292CD82A4ACA40D60728D50022D3
:1038A0006260D9042269226004D5421C01D12B68D0
:1038B00003B96065616B2F600029CAD004F144032D
:1038C000994202D0284600F00DFA00206063C1E75B
:1038D000216A01232846B047411CC7D12B68002B21
:1038E000C4D01D2B01D0162B01D12F60B1E7A389C5
:1038F00043F04003A381ADE70F69002FA9D09307E0
:103900000E6808BF4B690F6018BF0023A6EB0708BD
:103910008B60B8F1000F9CDD216AA66A43463A46E7
:103920002846B047002806DCA38943F04003A38162
:103930004FF0FF308EE70744A8EB0008E9E700BF2F
:103940000100402038B50B6905460C4613B9002527
:10395000284638BD18B183690BB900F099F8144BAB
:103960009C421BD16C68B4F90C30002BEFD0626E16
:10397000D00704D4990502D4A06D00F044F928467C
:103980002146FFF759FF636EDA070546E0D4A389A5
:103990009B05DDD4A06D00F037F9D9E7054B9C42BB
:1039A00001D1AC68DFE7044B9C4208BFEC68DAE762
:1039B000485800086858000828580008014620B9EF
:1039C000044B0549186800F0FEB8044B1868FFF76F
:1039D000B9BF00BF20570008453900080C0000207F
:1039E000002310B50446C0E90033C0E90433836006
:1039F00081814366C2818361194608225C30FFF7EA
:103A00008DFD054B6362054BA362054BE362054BDD
:103A10002462236310BD00BF4146000863460008CE
:103A20009B460008BF460008014900F0CCB800BF23
:103A30004539000870B54A1E682555430E4605F104
:103A4000740100F09FF9044640B10021C0E900165E
:103A50000C30A06005F16802FFF760FD204670BDE4
:103A6000014800F0D0B800BF68010020014800F014
:103A7000CBB800BF68010020014800F0C4B800BF07
:103A800063010020014800F0BFB800BF63010020BF
:103A900010B50446FFF7F0FFA3691BB1BDE8104065
:103AA000FFF7F0BFC4E912332365134B134A1B68B9
:103AB000A262A34204BF0123A361204600F020F8C4
:103AC0006060204600F01CF8A060204600F018F866
:103AD0000022E06004216068FFF782FFA0680122F5
:103AE0000921FFF77DFFE06802221221FFF778FF2E
:103AF0000123A361D2E700BF20570008293A00083C
:103B0000F8B50746FFF7ACFF1E4B1E68B36913B943
:103B10003046FFF7BDFF4836D6E90134013B03D5F7
:103B200033680BB33668F7E7B4F90C50D5B9164BC8
:103B3000E36004F15800656600F064F8FFF796FF53
:103B4000C4E90155C4E904552560A5610822294648
:103B500004F15C00FFF7E2FCC4E90D55C4E912551D
:103B60002046F8BD6834D9E704213846FFF762FFE4
:103B7000044630600028D5D1FFF778FF0C233B6066
:103B8000EEE700BF205700080100FFFF2DE9F041DC
:103B90000F4600F148040026D4E90185B8F1010878
:103BA00005D52468002CF7D13046BDE8F081AB89FB
:103BB000012B06D9B5F90E30013302D02846B8479B
:103BC00006436835EAE72DE9F8430646884600F1E2
:103BD00048040027D4E90195B9F1010905D5246805
:103BE000002CF7D13846BDE8F883AB89012B07D903
:103BF000B5F90E30013303D029463046C04707439C
:103C00006835E9E770477047704770B50E46B1F9FF
:103C10000E10002996B014461D4607DA00232B60CB
:103C2000B3891A0610D44FF480630EE06A4600F0A0
:103C3000FFFE0028F2DB019A02F47042A2F5005365
:103C40005A425A412A60EEE740230020236016B012
:103C500070BD00008B8973B59D0706460C4607D5DD
:103C600004F14703236023610123636102B070BD47
:103C700001AB6A46FFF7C9FF00990546304600F0E0
:103C800081F848B9B4F90C309A05EFD423F0030356
:103C900043F00203A381E3E70D4BB362A3892060E5
:103CA00043F08003A381009B6361019B20615BB1B2
:103CB000B4F90E10304600F0CDFE28B1A38923F0F0
:103CC000030343F00103A381A0890543A581CDE748
:103CD000293A0008024B0146186800F053B800BFAB
:103CE0000C00002037B5002948D051F8043C019061
:103CF000002BA1F10404B8BFE41800F0DBFE204A59
:103D000001981368154633B96360146003B0BDE8C9
:103D1000304000F0D5BEA3420BD92168621893420F
:103D200004BF1A685B68636004BF521822602C608D
:103D3000ECE71A465B680BB1A342FAD91168551833
:103D4000A5420BD1246821445418A3421160DDD14F
:103D50001C685B68536021441160D7E702D90C23CB
:103D60000360D3E7256861198B4204BF19685B685B
:103D7000636004BF491921605460C7E703B030BDD8
:103D800054010020F8B5CD1C25F0030508350C2D95
:103D900038BF0C25002D064601DBA94203D90C23B0
:103DA00033600020F8BD00F085FE21490A68144602
:103DB0009CB9204F3B6823B92146304600F0F6FB02
:103DC00038602946304600F0F1FB431C23D10C2318
:103DD0003360304600F074FEE3E723685B1B17D4C2
:103DE0000B2B03D923601C44256004E06368A242C6
:103DF0000CBF0B605360304600F062FE04F10B0014
:103E0000231D20F00700C21ACCD01B1AA350C9E70B
:103E100022466468CCE7C41C24F00304A042E3D02B
:103E2000211A304600F0C2FB0130DDD1CFE700BFE0
:103E300054010020580100209368013B002B10B46E
:103E4000936008DA9469A34201DB0A2903D15DF883
:103E5000044B00F00BBD1368581C10601970084625
:103E60005DF8044B7047F8B506460F461446D51862
:103E7000AC4201D1002007E014F8011B3A4630465D
:103E8000FFF7DAFF431CF3D1F8BD00002DE9F04F36
:103E90000D469DB014469846064618B183690BB985
:103EA000FFF7F6FD894B9D421BD175686B6ED907F4
:103EB00005D4AB899A0502D4A86DFFF7A4FEAB899F
:103EC0001B0701D52B69EBB92946304600F032FDBE
:103ED000C0B16B6EDC070ED54FF0FF301DB0BDE8F2
:103EE000F08F7B4B9D4201D1B568DFE7794B9D4256
:103EF00008BFF568DAE7AB899805EDD4A86DFFF740
:103F000083FEE9E70023099320238DF82930CDF8BB
:103F10000C803023DFF8C0818DF82A304FF0010982
:103F200023469A4613F8012B0AB1252AF9D1BAEB98
:103F3000040B0BD05B46224629463046FFF793FF21
:103F4000013000F0AA80099A5A4409929AF8003088
:103F5000002B00F0A28000234FF0FF32CDE90523B3
:103F60000AF1010A049307938DF853301A935446CB
:103F7000052214F8011B5848FCF70AF9049AD8B92D
:103F8000D10644BF20238DF85330130744BF2B23A1
:103F90008DF853309AF800302A2B15D0079A5446E2
:103FA00000204FF00A0C214611F8013B303B092B51
:103FB0004ED9B0B1079214E0A0EB080309FA03F35D
:103FC00013430493A246D2E7039B191D1B68039178
:103FD000002BBBBF5B4242F0020207930793B8BFBE
:103FE000049223782E2B0CD163782A2B35D1039B96
:103FF0001A1D1B680392002BB8BF4FF0FF33023429
:104000000593DFF8E4A0217803225046FCF7C0F8BE
:1040100040B14023A0EB0A0003FA00F0049B0343E5
:104020000134049314F8011B2C488DF82810062243
:10403000FCF7AEF800283FD0294B1BBB039B07338E
:1040400023F0070308330393099B3B44099367E775
:104050000CFB02320C460120A5E700230134059336
:1040600019464FF00A0C204610F8012B303A092A65
:1040700003D9002BC5D00591C3E70CFB01210446F1
:104080000123F0E703AB00932A46164B04A9304600
:10409000AFF300800746781CD6D16B6ED90705D4E4
:1040A000AB899A0502D4A86DFFF7AEFDAB895B061C
:1040B0003FF512AF099811E703AB00932A46094B6D
:1040C00004A9304600F096FDE4E700BF4858000818
:1040D00068580008285800088858000892580008B6
:1040E00000000000673E00088E5800082DE9F04FE0
:1040F0001D464B6EDF07ADF5237D06460C46924606
:1041000005D48B89980502D4886DFFF77CFD0023C8
:10411000CDE94433AE4BA0930DF10408AD4BAE4F47
:10412000DFF8B892CDF81881A19300959AF800B005
:10413000BBF1000F00F070811BF8073013F008038B
:104140000AF1010519D06368002B0FDD23681A7886
:10415000BA5C110701D4AA46E8E7459A01324592B4
:1041600062680133013A62602360ECE7A19B21465B
:10417000304698470028E9D0EDE7BBF1250F40F025
:104180008680419343939AF801302A2B02BF102373
:1041900041930AF102050A22AA461AF8011BA1F16D
:1041A0003003092B1ED98D480322FBF7F1FF40B1E4
:1041B0000123A0EB090003FA00F0419B1843419052
:1041C000554615F8013B782B07D8572B11D8252BCE
:1041D0005DD057D8002B00F0D680032347930A23E5
:1041E00042938BE0439B02FB0313303B43935546C2
:1041F000D2E7A3F15802202AEFD801A151F822F00A
:10420000E7420008DB410008DB41000845430008A5
:10421000DB410008DB410008DB410008DB4100080E
:10422000DB410008DB410008DB4100085B4300087C
:10423000314300088B4200088B4200088B42000883
:10424000DB41000835430008DB410008DB41000882
:10425000DB410008DB4100086B4300083D430008D8
:10426000DF420008DB410008DB410008674300082B
:10427000DB41000831430008DB410008DB41000856
:10428000E7420008453B022BA7D8052335E06368C9
:10429000002B0DDD23681A785A4540F0BD800133AC
:1042A00062682360459B013A01336260459352E79F
:1042B000A19B2146304698470028EBD0636EDA0771
:1042C00040F1A2804498002866D0A38913F0400FE3
:1042D00018BF4FF0FF300DF5237DBDE8F08F419AF8
:1042E00042F020024192419A42F40072419210221F
:1042F0006F2B429234BF0323042347936368002B40
:104300004DDD419B5B0604D423681A78BA5C100724
:104310004CD4479B022B63DC6B46224641A93046B6
:1043200000F08EFD012877D002287FF414AFC5E796
:104330000A22DDE7002342930323DEE708234293AA
:104340000423DAE72946404600F040F9419B43F058
:104350004003419305460123CFE7419B43F04003CF
:1043600041930023C9E70223C7E74198C3063FF5FD
:10437000F2AE009B459A191D00911B68C0074CBF07
:104380001A801A60E7E6636ED80705D4A3899905F9
:1043900002D4A06DFFF738FC4FF0FF309BE7A19BE4
:1043A0002146304698470028ABD087E7459A01322E
:1043B00045926268013A002A626002DD013323609F
:1043C000A2E7A19B21463046984700289CD075E77C
:1043D0003D47000899440008255700088E580008FA
:1043E000042B06DC6B46224641A9304600F080FDD6
:1043F00098E70F4B002B3FF4AEAE6B46224641A927
:104400003046AFF300808DE7A38999053FF55AAF99
:10441000A06DFFF7F9FB55E7636EDA0705D4A389B2
:104420009B0502D4A06DFFF7EFFB449853E700BF54
:104430000000000037B50C46054638B1816929B93E
:10444000CDE90023FFF724FBDDE900230A498C4274
:1044500007D16C682146284603B0BDE83040FFF71D
:1044600045BE06498C4201D1AC68F3E704498C4251
:1044700008BFEC68EEE700BF48580008685800081D
:1044800028580008838903F00903092B01D1FFF79D
:1044900095BA002070470000F8B50C46054618B1E3
:1044A00083690BB9FFF7F4FA3B4B9C420AD16C6865
:1044B000B4F90C2000236360A3899E060CD54FF04D
:1044C000FF3066E0354B9C4201D1AC68F0E7344BDD
:1044D0009C4208BFEC68EBE7580748D4D90605D4DE
:1044E00009232B6042F04003A381E8E71A070BD5AC
:1044F00021462846FFF726FA0028E0D1A389A060CC
:1045000023F00803A381A061A38943F00403A381DE
:1045100023691BB921462846FFF79CFBA689B4F9FD
:104520000C70B3070FD00123A3811E4B1E491868DE
:1045300006F00906FFF72AFB092EA78103D12146C1
:104540002846FFF779F92269666A6369216A226061
:104550002846B047002860601CDCB4F90C3017BF57
:10456000002243F02003626043F04003BCE7616B2C
:104570000029CDD004F14403994202D02846FFF728
:10458000B1FB236C636000206063002BC0D0E36B41
:104590002360F8BD0020FCE7485800086858000870
:1045A00028580008205700088544000838B5064DF3
:1045B0000023044608462B6000F026FE431C02D16F
:1045C0002B6803B1236038BD6C01002070B50B78F7
:1045D00004465E2B0BBF4B78481C881C002208BF8A
:1045E0000122611E04F1FF0501F8012FA942FBD150
:1045F0000BB9013870BD82F00101E154421C12F880
:10460000015C2D2D02F1FF36104606D05D2DF1D054
:104610000DB93046EEE72B46EFE716785D2EFAD05F
:10462000B342F8DC1846013086422154FBDCD84303
:1046300030445D1CB342A8BF00202B180232DEE7D5
:1046400010B50C46B1F90E1000F046FD0028ABBFC6
:10465000636DA3891B1823F48053ACBF6365A381EA
:1046600010BD2DE9F0411F468B89DB0505460C4640
:10467000164605D5B1F90E100223002200F0FAF912
:10468000A389B4F90E1023F48053A38132463B462C
:104690002846BDE8F04100F03BB910B50C46B1F931
:1046A0000E1000F0E7F9431CA38915BF606523F4E1
:1046B000805343F48053A38118BFA38110BDB1F987
:1046C0000E1000F0A5B92DE9F0410C46496B04F13C
:1046D000440399421DD14FF48061FFF753FB18B991
:1046E0004FF0FF30BDE8F0814FF48063A36394F88E
:1046F0004630606380F8FF3394F8453080F8FE332D
:1047000094F8443080F8FD3300F2FD302060002042
:10471000E8E7A66B77003A4600F0D8F9054600288E
:10472000DED000EB060801463246404600F0B4F900
:10473000C4E90D57C4F80080E9E7000070B51446DD
:104740004A1C06460D4603D14FF0FF35284670BD82
:1047500018B183690BB9FFF79BF9414B9C421DD1FE
:104760007468636EDB0705D4A389980502D4A06D35
:10477000FFF749FAB4F90C3023F020035907A3815D
:104780009AB22DD4D30613D4636EDD07DCD412F4B1
:10479000007FD9D1A06DFFF737FAD5E7314B9C42A6
:1047A00001D1B468DDE7304B9C4208BFF468D8E71C
:1047B000100711D521463046FFF7C4F830B1636EBB
:1047C000D907C1D4A38913F4007FE2E7A389A060CD
:1047D00023F00803A381A061A38943F00403A3810C
:1047E000636B6268EDB2D3B1A36B934205DC2146E3
:1047F0003046FFF768FF0028E1D123685A1E226087
:1048000003F8015C636801336360636EDA079DD46B
:10481000A3899B059AD4A06DFFF7F6F996E7616E20
:104820002069236801F0010160B198420AD213F8AF
:10483000010CA84206D1013B0132236062600029CD
:1048400084D1E5E7C4E90F3204F144036363032331
:10485000A363234603F8465F236001236360EEE70A
:10486000485800086858000828580008F8B50E464F
:104870001446054618B183690BB9FFF709F9214BB6
:104880009C422BD16C68A369A360A3891A072FD51A
:1048900023696BB323692068C01A6369F6B2834247
:1048A000374604DC21462846FFF74CF830BBA368A6
:1048B000013BA36023685A1C22601E7063690130AB
:1048C000834204D0A389DB0706D50A2E04D12146F2
:1048D0002846FFF737F888B93846F8BD0A4B9C429E
:1048E00001D1AC68CFE7094B9C4208BFEC68CAE72E
:1048F0002146284600F01EF80028CBD04FF0FF37A5
:10490000EAE700BF4858000868580008285800081F
:1049100038B5074D04460846114600222A601A465B
:10492000FBF7DCFC431C02D12B6803B1236038BDCC
:104930006C010020324B70B51D6806460C4625B14F
:10494000AB6913B92846FFF7A3F82E4B9C420FD151
:104950006C68A389B4F90C2019072CD4DD0611D496
:104960000923336042F04003A3814FF0FF303EE063
:10497000254B9C4201D1AC68EBE7244B9C4208BF1D
:10498000EC68E6E7580712D5616B41B104F14403C6
:10499000994202D03046FFF7A5F900236363A3894B
:1049A00023F02403A3810023636023692360A38988
:1049B00043F00803A38123694BB9A38903F420734F
:1049C000B3F5007F03D021463046FFF743F9A089B5
:1049D000B4F90C2010F001030AD00023A36063692E
:1049E0005B42A361236943B910F08000BAD170BD66
:1049F000810758BF6369A360F4E70020F7E700BFB1
:104A00000C00002048580008685800082858000882
:104A100038B5064D0023044608462B60FBF778FCAA
:104A2000431C02D12B6803B1236038BD6C01002008
:104A300038B5074D00230446084611462B60FBF7A6
:104A400093FC431C02D12B6803B1236038BD00BF27
:104A50006C01002038B5064D0023044608462B6043
:104A6000FBF730FC431C02D12B6803B1236038BD37
:104A70006C01002038B5074D044608461146002257
:104A80002A601A46FBF750FC431C02D12B6803B185
:104A9000236038BD6C0100200A44914200F1FF33CD
:104AA00000D1704710B511F8014B03F8014F914246
:104AB000F9D110BD0148FFF7A6B800BF640100207E
:104AC0000148FFF7A1B800BF64010020F8B5074610
:104AD00014460E4621B9BDE8F8401146FFF752B919
:104AE00022B9FFF7FFF825462846F8BD00F084FB01
:104AF000A0420FD221463846FFF744F90546002868
:104B0000F2D031462246FFF7C7FF31463846FFF75D
:104B1000E9F8E9E73546E7E72DE9F0471646994613
:104B20008A680B69DDF820809342B8BF1346336072
:104B300091F8432007460C460AB1013333602368DD
:104B4000990642BF336802333360256815F00605C5
:104B500006D104F1190AE36832689B1AAB4226DCDD
:104B600094F84320131E226818BF012392062BD409
:104B700004F1430249463846C04701301ED023683D
:104B8000E568326803F00603042B08BFAD1AA3687A
:104B900022690CBF25EAE57500259342C4BF9B1A24
:104BA000ED1800261A34B5421AD1002008E001237E
:104BB000524649463846C047013003D14FF0FF30D6
:104BC000BDE8F0870135C6E7E1185A1C302081F8AE
:104BD0004300224494F8451082F843100233C7E79B
:104BE0000123224649463846C0470130E6D0013607
:104BF000D9E700002DE9FF470C469146277E0C9926
:104C0000782F80469A4604F1430207D8622F0AD8CB
:104C1000002F00F0D880582F00F0A38004F1420646
:104C200084F842703AE0A7F16303152BF6D801A08F
:104C300050F823F08D4C0008A14C00081D4C0008D2
:104C40001D4C00081D4C00081D4C0008A14C00081C
:104C50001D4C00081D4C00081D4C00081D4C000890
:104C6000AD4D0008D14C00088F4D00081D4C0008C8
:104C70001D4C0008CF4D00081D4C0008D14C000809
:104C80001D4C00081D4C0008974D00080B681A1DAC
:104C90001B680A6004F1420684F842300123A3E055
:104CA000256808682E0600F104030AD505680B6024
:104CB000002D03DA2D236D4284F843305E480A2329
:104CC00019E015F0400F05680B6018BF2DB2EFE733
:104CD0000B682568181D0860280601D51D6802E0CC
:104CE0006906FBD51D8854486F2F0CBF08230A2383
:104CF000002184F843106668A660002EA2BF2168D8
:104D000021F0040121600DB9002E4DD01646B5FBEF
:104D1000F3F103FB1157C75D06F8017D2F46BB4237
:104D20000D46F4D9082B0BD12368DF0708D523697A
:104D300061689942DEBF302306F8013C06F1FF3678
:104D4000921B2261CDF800A04B4603AA21464046A3
:104D5000FFF7E2FE01304CD14FF0FF3004B0BDE868
:104D6000F087354884F8457023680E681F0656F8AA
:104D7000045B0E6014D5D90744BF43F020032360C1
:104D80001DB9236823F0200323601023B0E72368B4
:104D900043F0200323607823284884F84530E3E774
:104DA0005E0648BFADB2E6E71646BBE70B6826686D
:104DB00060691D1D0D6035061B6801D5186002E095
:104DC0007106FBD51880002323611646BAE70B68ED
:104DD0001A1D0A601E68626800213046FBF7D8F988
:104DE00008B1801B606063682361002384F843304E
:104DF000A8E72369324649464046D0470130ABD048
:104E000023689B0713D4E068039B9842B8BF1846F9
:104E1000A4E70123324649464046D04701309BD0A3
:104E20000135E36803995B1AAB42F2DCEBE700253E
:104E300004F11906F5E700BF99580008AA580008C0
:104E40002DE9F84315468A6880460C4632B98A69CE
:104E5000002A0CBF01224FF0FF328A602268DFF87F
:104E60008C90D1065FBF1A68111D19601668002763
:104E7000A06988B1012807D12B681A7863699B5C07
:104E800053B927BBBDE8F883022820D12B681B78D3
:104E900013F809301B071AD42368DA065EBF2B68A3
:104EA0001B7806F8013B2A686B6801322A60A26809
:104EB000013B013A6B600137A26042B1002BD7DCA5
:104EC000D4F880312946404698470028D0D023683E
:104ED00013F0100305D1E2680132E260A26902B169
:104EE000337023691F4427610020CBE72557000852
:104EF0002DE9F04F9846744B0C468246164693E8CF
:104F0000070087B003AB83E80700704BA169704AC4
:104F1000032918BF1A46A36801925A1EB2F5AE7F44
:104F200088BF6FF4AE75274682BF03EB050940F2D8
:104F30005D13A36057F81C3B43F4506398BF4FF0D8
:104F4000000923603D464FF0000B316803AB097840
:104F500053F82B000222FBF71BF928B3BBF1010F1A
:104F600059D162682AB92268082342F4007263604A
:104F70002260226822F4A0622260A268511EA16011
:104F800092B13268511C3160127805F8012B7268B9
:104F9000013A002A726007DCD4F88021314650467D
:104FA0009047002840F085800BF1010BBBF1030F07
:104FB000CBD163680BB90A236360636845496069B4
:104FC000C91AFFF703FB4FF0000BA3682268002B00
:104FD0003DD03168606991F800C010F80C000028DD
:104FE00035D0BCF1300F24D1100522D50BF1010BC7
:104FF000B9F1000F03D0013309F1FF39A3607368E1
:10500000013B002B73601BDD336801333360A36801
:10501000013BA360D9E7BBF1020FAED1226802F4D5
:10502000C061B1F5007FBFD11023636042F480728C
:10503000A2E722F4106222600B7805F8013BDEE75C
:10504000D4F880313146504698470028DFD0236895
:10505000D9050DD5BD4209D915F8011CD4F87C310C
:1050600032465046984705F1FF394D46BD4228D09B
:10507000226812F0100213D12A706368019E39462B
:105080005046B047D8F8003021681A1DC8F80020F3
:1050900011F0200F1B680FD01860E3680133E36044
:1050A000ED1BAB4425695D442561002007B0BDE8D8
:1050B000F08F4FF0000BCAE7CA074CBF188018608A
:1050C000EBE70120F2E700BFE8540008F5510008C3
:1050D00021380008D458000838B5074D0446084662
:1050E000114600222A601A46FBF726F9431C02D11A
:1050F0002B6803B1236038BD6C0100202DE9F0431B
:105100003B4E86468C4660461CF8014BA55D15F06B
:105110000805F8D12D2C34D19CF800404FF001083F
:1051200000F1020C002B5ED0102B0CD1302C0AD1D8
:105130009CF8000000F0DF0058284FD19CF8014097
:1051400010230CF1020C4FF0FF370025B7FBF3F7EB
:1051500003FB07F96FEA09092846A4F13006092E76
:1051600018D83446A34224DD002D1FDB87421DD30F
:1051700001D1A1451ADB00FB034001251CF8014BBE
:10518000EBE72B2C08BF9CF80040A84608BF00F1B5
:10519000020CC7E7A4F14106192E01D8373CE1E71C
:1051A000A4F16106192E04D8573CDBE74FF0FF3518
:1051B000E4E7002D07DA2223CEF800304FF0FF306D
:1051C00042B9BDE8F083B8F1000F00D04042002A98
:1051D000F7D00DB10CF1FF311160F2E73024002B54
:1051E000B1D10823AFE7302CA2D00A23ABE700BF30
:1051F00025570008FFF782BF51F8043C181F002B09
:10520000BCBF0B58C0187047044A05491368002BEF
:1052100008BF0B4618441060184670475C01002018
:10522000700100202DE9F04F099E88468E461546F4
:1052300004461946002B40F0C7804245B2FA82F777
:1052400046D94FB1C7F1200C08FA07F320FA0CFC3D
:10525000BD404CEA030EBC404FEA15481FFA85FCDE
:10526000BEFBF8F9220C08FB19E309FB0CFA42EA31
:1052700003439A4528D9EB1809F1FF3004D29A4527
:1052800002D9A9F102002B44A3EB0A03A4B2B3FB99
:10529000F8F208FB123302FB0CFC44EA0344A44579
:1052A00014D92C1902F1FF3303D2A44501D9931E5E
:1052B0002C44A4EB0C0443EA00401EB1FC40002344
:1052C00034607360BDE8F08F4846DDE71346F0E7D1
:1052D00002B9FFDE8FBBA8EB020301214FEA154E96
:1052E000AAB2B3FBFEFC200C0EFB1C330CFB02F835
:1052F00040EA0343984563D9EB180CF1FF3004D220
:10530000984502D9ACF102002B44A3EB0803A4B2E8
:10531000B3FBFEFC0EFB1C330CFB02F244EA03441D
:10532000A2424FD92C190CF1FF3304D2A24202D968
:10533000ACF102032C44A41ABDE7C7F1200C28FAF3
:105340000CF908FA07F320FA0CFCBD404CEA030202
:105350004FEA154EABB2B9FBFEFC110C0EFB1C90D4
:105360000CFB03F841EA0040804504FA07F423D916
:1053700028180CF1FF3104D2804502D9ACF10201AA
:105380002844A0EB080092B2B0FBFEFC0EFB1C0010
:105390000CFB03F842EA004398450FD9EB180CF1D7
:1053A000FF3204D2984502D9ACF102022B44A3EBA0
:1053B000080342EA014191E76146E2E76246F6E707
:1053C0006046A2E76346B6E7434505D90EB1C6E994
:1053D00000080021084675E7B3FA83FCBCF1000F12
:1053E00010D1434501D382420AD8841A68EB0303E3
:1053F00001209E46002E68D0C6E9004E002161E7DC
:105400006046F7E7CCF1200E03FA0CF322FA0EF413
:105410001C4320FA0EF108FA0CF328FA0EFB19438C
:105420004FEA144902FA0CF5BBFBF9F8A3B209FBE9
:1054300018BB0A0C08FB03FA42EA0B42924500FA39
:105440000CF73ED9A21808F1FF3004D2924502D9D8
:10545000A8F102002244A2EB0A0289B2B2FBF9F8D9
:1054600009FB182208FB03F341EA024293422AD9BE
:10547000A21808F1FF3104D2934202D9A8F1020127
:10548000224441EA0040A0FB0598D21A42454B460F
:10549000414602D306D14F4504D2B9EB050368EB70
:1054A000040101388EB1FC1A62EB010707FA0EFE07
:1054B00024FA0CF34EEA030327FA0CF7C6E9003787
:1054C0009CE74046C7E74146DBE73146FAE6000085
:1054D000F8B500BFF8BC08BC9E467047F8B500BFE1
:0854E000F8BC08BC9E467047B1
:1054E800BB580008BE580008C15800080D0A596F7B
:1054F8007572206E616D653A200000002564000019
:105508000D0A48656C6C6F2C202573210D0A00006C
:10551800447269766572732F53544D33324C347824
:10552800785F48414C5F4472697665722F537263A5
:105538002F73746D33326C3478785F68616C5F7484
:10554800696D2E6300000000447269766572732FDE
:1055580053544D33324C3478785F48414C5F447231
:10556800697665722F5372632F73746D33326C349E
:1055780078785F68616C5F74696D5F65782E630029
:10558800447269766572732F53544D33324C3478B4
:10559800785F48414C5F4472697665722F53726335
:1055A8002F73746D33326C3478785F68616C5F7216
:1055B80063632E6300000000447269766572732F7E
:1055C80053544D33324C3478785F48414C5F4472C1
:1055D800697665722F5372632F73746D33326C342E
:1055E80078785F68616C5F7263635F65782E6300CB
:1055F800447269766572732F53544D33324C347844
:10560800785F48414C5F4472697665722F537263C4
:105618002F73746D33326C3478785F68616C5F67B0
:1056280070696F2E63000000447269766572732F8B
:1056380053544D33324C3478785F48414C5F447250
:10564800697665722F5372632F73746D33326C34BD
:1056580078785F68616C5F7077725F65782E630039
:10566800447269766572732F53544D33324C3478D3
:10567800785F48414C5F4472697665722F53726354
:105688002F73746D33326C3478785F68616C5F6344
:105698006F727465782E6300447269766572732F31
:1056A80053544D33324C3478785F48414C5F4472E0
:1056B800697665722F5372632F73746D33326C344D
:1056C80078785F68616C5F756172742E63000000A2
:1056D800000000000000000001020304060708099A
:1056E8000000000001020304A0860100400D030031
:1056F800801A060000350C0040420F0080841E000E
:1057080000093D0000127A000024F40000366E0102
:105718000048E801006CDC02100000200020202076
:105728002020202020202828282828202020202049
:105738002020202020202020202020202088101019
:105748001010101010101010101010101004040475
:105758000404040404040410101010101010414133
:105768004141414101010101010101010101010121
:105778000101010101010101101010101010424235
:1057880042424242020202020202020202020202F1
:105798000202020202020202101010102000000091
:1057A80000000000000000000000000000000000F1
:1057B80000000000000000000000000000000000E1
:1057C80000000000000000000000000000000000D1
:1057D80000000000000000000000000000000000C1
:1057E80000000000000000000000000000000000B1
:1057F80000000000000000000000000000000000A1
:105808000000000000000000000000000000000090
:105818000000000000000000000000000000000080
:105828000000000000000000000000000000000070
:105838000000000000000000000000000000000060
:105848000000000000000000000000000000000050
:105858000000000000000000000000000000000040
:105868000000000000000000000000000000000030
:105878000000000000000000000000000000000020
:10588800232D302B2000686C4C0065666745464721
:1058980000303132333435363738394142434445A4
:1058A8004600303132333435363738396162636413
:1058B8006566002B2D00303000785800412D466178
:1058C8002D66383930313233343536375D000000D3
:0858D8004CF9FF7F0100000004
:0858E00089020008000000002D
:0858E800650200080000000049
:1058F000010000001000000000093D001000002021
:10590000000000004858000868580008285800089F
:105910000000000000000000000000000000000087
:105920000000000000000000000000000000000077
:105930000000000000000000000000000000000067
:105940000000000000000000000000000000000057
:105950000000000000000000000000000000000047
:040000050800346D4E
:00000001FF
